{
  "contractName": "Enlistment",
  "abi": [
    {
      "constant": true,
      "inputs": [],
      "name": "locked",
      "outputs": [
        {
          "name": "",
          "type": "bool"
        }
      ],
      "payable": false,
      "stateMutability": "view",
      "type": "function"
    },
    {
      "inputs": [
        {
          "name": "landlordEmail",
          "type": "string"
        },
        {
          "name": "landlordName",
          "type": "string"
        },
        {
          "name": "streetName",
          "type": "string"
        },
        {
          "name": "floorNr",
          "type": "uint256"
        },
        {
          "name": "apartmentNr",
          "type": "uint256"
        },
        {
          "name": "houseNr",
          "type": "uint256"
        },
        {
          "name": "postalCode",
          "type": "uint256"
        }
      ],
      "payable": false,
      "stateMutability": "nonpayable",
      "type": "constructor"
    },
    {
      "constant": true,
      "inputs": [],
      "name": "getOwner",
      "outputs": [
        {
          "name": "",
          "type": "address"
        }
      ],
      "payable": false,
      "stateMutability": "view",
      "type": "function"
    },
    {
      "constant": true,
      "inputs": [],
      "name": "getLandlord",
      "outputs": [
        {
          "name": "",
          "type": "string"
        },
        {
          "name": "",
          "type": "string"
        }
      ],
      "payable": false,
      "stateMutability": "view",
      "type": "function"
    },
    {
      "constant": true,
      "inputs": [],
      "name": "getEnlistment",
      "outputs": [
        {
          "name": "",
          "type": "string"
        },
        {
          "name": "",
          "type": "string"
        },
        {
          "name": "",
          "type": "string"
        },
        {
          "name": "",
          "type": "uint256"
        },
        {
          "name": "",
          "type": "uint256"
        },
        {
          "name": "",
          "type": "uint256"
        },
        {
          "name": "",
          "type": "uint256"
        },
        {
          "name": "",
          "type": "bool"
        }
      ],
      "payable": false,
      "stateMutability": "view",
      "type": "function"
    },
    {
      "constant": false,
      "inputs": [
        {
          "name": "amount",
          "type": "uint256"
        },
        {
          "name": "tenantName",
          "type": "string"
        },
        {
          "name": "tenantEmail",
          "type": "string"
        }
      ],
      "name": "sendOffer",
      "outputs": [],
      "payable": true,
      "stateMutability": "payable",
      "type": "function"
    },
    {
      "constant": false,
      "inputs": [
        {
          "name": "tenantEmail",
          "type": "string"
        }
      ],
      "name": "cancelOffer",
      "outputs": [],
      "payable": true,
      "stateMutability": "payable",
      "type": "function"
    },
    {
      "constant": true,
      "inputs": [
        {
          "name": "tenantEmail",
          "type": "string"
        }
      ],
      "name": "getOffer",
      "outputs": [
        {
          "name": "",
          "type": "bool"
        },
        {
          "name": "",
          "type": "uint256"
        },
        {
          "name": "",
          "type": "string"
        },
        {
          "name": "",
          "type": "string"
        },
        {
          "name": "",
          "type": "uint8"
        }
      ],
      "payable": false,
      "stateMutability": "view",
      "type": "function"
    },
    {
      "constant": false,
      "inputs": [
        {
          "name": "result",
          "type": "bool"
        },
        {
          "name": "tenantEmail",
          "type": "string"
        }
      ],
      "name": "reviewOffer",
      "outputs": [],
      "payable": true,
      "stateMutability": "payable",
      "type": "function"
    },
    {
      "constant": false,
      "inputs": [
        {
          "name": "tenantEmail",
          "type": "string"
        },
        {
          "name": "landlordName",
          "type": "string"
        },
        {
          "name": "agreementTenantName",
          "type": "string"
        },
        {
          "name": "agreementTenantEmail",
          "type": "string"
        },
        {
          "name": "leaseStart",
          "type": "uint256"
        },
        {
          "name": "handoverDate",
          "type": "uint256"
        },
        {
          "name": "leasePeriod",
          "type": "uint256"
        },
        {
          "name": "otherTerms",
          "type": "string"
        },
        {
          "name": "documentHash",
          "type": "string"
        }
      ],
      "name": "submitDraft",
      "outputs": [],
      "payable": true,
      "stateMutability": "payable",
      "type": "function"
    },
    {
      "constant": true,
      "inputs": [
        {
          "name": "tenantEmail",
          "type": "string"
        }
      ],
      "name": "getAgreementParticipants",
      "outputs": [
        {
          "name": "",
          "type": "string"
        },
        {
          "name": "",
          "type": "string"
        },
        {
          "name": "",
          "type": "string"
        }
      ],
      "payable": false,
      "stateMutability": "view",
      "type": "function"
    },
    {
      "constant": true,
      "inputs": [
        {
          "name": "tenantEmail",
          "type": "string"
        }
      ],
      "name": "getAgreementDetails",
      "outputs": [
        {
          "name": "",
          "type": "uint256"
        },
        {
          "name": "",
          "type": "uint256"
        },
        {
          "name": "",
          "type": "uint256"
        },
        {
          "name": "",
          "type": "uint256"
        },
        {
          "name": "",
          "type": "string"
        }
      ],
      "payable": false,
      "stateMutability": "view",
      "type": "function"
    },
    {
      "constant": true,
      "inputs": [
        {
          "name": "tenantEmail",
          "type": "string"
        }
      ],
      "name": "getAgreementHashes",
      "outputs": [
        {
          "name": "",
          "type": "string"
        },
        {
          "name": "",
          "type": "string"
        },
        {
          "name": "",
          "type": "string"
        }
      ],
      "payable": false,
      "stateMutability": "view",
      "type": "function"
    },
    {
      "constant": true,
      "inputs": [
        {
          "name": "tenantEmail",
          "type": "string"
        }
      ],
      "name": "getAgreementStatus",
      "outputs": [
        {
          "name": "",
          "type": "uint8"
        }
      ],
      "payable": false,
      "stateMutability": "view",
      "type": "function"
    },
    {
      "constant": false,
      "inputs": [
        {
          "name": "tenantEmail",
          "type": "string"
        },
        {
          "name": "result",
          "type": "bool"
        }
      ],
      "name": "reviewAgreement",
      "outputs": [],
      "payable": true,
      "stateMutability": "payable",
      "type": "function"
    },
    {
      "constant": false,
      "inputs": [
        {
          "name": "tenantEmail",
          "type": "string"
        },
        {
          "name": "landlordSignature",
          "type": "string"
        }
      ],
      "name": "landlordSignAgreement",
      "outputs": [],
      "payable": true,
      "stateMutability": "payable",
      "type": "function"
    },
    {
      "constant": false,
      "inputs": [
        {
          "name": "tenantEmail",
          "type": "string"
        },
        {
          "name": "tenantSignature",
          "type": "string"
        }
      ],
      "name": "tenantSignAgreement",
      "outputs": [],
      "payable": true,
      "stateMutability": "payable",
      "type": "function"
    },
    {
      "constant": false,
      "inputs": [
        {
          "name": "tenantEmail",
          "type": "string"
        }
      ],
      "name": "cancelAgreement",
      "outputs": [],
      "payable": true,
      "stateMutability": "payable",
      "type": "function"
    },
    {
      "constant": false,
      "inputs": [
        {
          "name": "tenantEmail",
          "type": "string"
        }
      ],
      "name": "receiveFirstMonthRent",
      "outputs": [],
      "payable": true,
      "stateMutability": "payable",
      "type": "function"
    }
  ],
  "bytecode": "0x608060405260008060146101000a81548160ff0219169083151502179055503480156200002b57600080fd5b50604051620041b9380380620041b98339810180604052810190808051820192919060200180518201929190602001805182019291906020018051906020019092919080519060200190929190805190602001909291908051906020019092919050505060e0604051908101604052808881526020018781526020018681526020018581526020018481526020018381526020018281525060016000820151816000019080519060200190620000e39291906200019a565b506020820151816001019080519060200190620001029291906200019a565b506040820151816002019080519060200190620001219291906200019a565b50606082015181600301556080820151816004015560a0820151816005015560c08201518160060155905050336000806101000a81548173ffffffffffffffffffffffffffffffffffffffff021916908373ffffffffffffffffffffffffffffffffffffffff1602179055505050505050505062000249565b828054600181600116156101000203166002900490600052602060002090601f016020900481019282601f10620001dd57805160ff19168380011785556200020e565b828001600101855582156200020e579182015b828111156200020d578251825591602001919060010190620001f0565b5b5090506200021d919062000221565b5090565b6200024691905b808211156200024257600081600090555060010162000228565b5090565b90565b613f6080620002596000396000f3006080604052600436106100fb576000357c0100000000000000000000000000000000000000000000000000000000900463ffffffff168062ff22c61461010057806303746e06146101a2578063222a7af914610244578063265adc331461041c5780632d63ce271461051a5780632fcc176d1461057657806331ae8ed0146105de5780634d45780e1461076d578063673a95ef146107c957806371ca1587146108315780637a510116146109eb578063893d20e814610b60578063a578945c14610bb7578063cf30901214610c63578063d441a15214610c92578063ec2b2a1214610e4c578063f278f78414610ed7578063f502236d14610f33575b600080fd5b6101a0600480360381019080803590602001908201803590602001908080601f0160208091040260200160405190810160405280939291908181526020018383808284378201915050505050509192919290803590602001908201803590602001908080601f016020809104026020016040519081016040528093929190818152602001838380828437820191505050505050919291929050505061102f565b005b610242600480360381019080803590602001908201803590602001908080601f0160208091040260200160405190810160405280939291908181526020018383808284378201915050505050509192919290803590602001908201803590602001908080601f0160208091040260200160405190810160405280939291908181526020018383808284378201915050505050509192919290505050611379565b005b61041a600480360381019080803590602001908201803590602001908080601f0160208091040260200160405190810160405280939291908181526020018383808284378201915050505050509192919290803590602001908201803590602001908080601f0160208091040260200160405190810160405280939291908181526020018383808284378201915050505050509192919290803590602001908201803590602001908080601f0160208091040260200160405190810160405280939291908181526020018383808284378201915050505050509192919290803590602001908201803590602001908080601f0160208091040260200160405190810160405280939291908181526020018383808284378201915050505050509192919290803590602001909291908035906020019092919080359060200190929190803590602001908201803590602001908080601f0160208091040260200160405190810160405280939291908181526020018383808284378201915050505050509192919290803590602001908201803590602001908080601f01602080910402602001604051908101604052809392919081815260200183838082843782019150505050505091929192905050506116fa565b005b34801561042857600080fd5b50610483600480360381019080803590602001908201803590602001908080601f0160208091040260200160405190810160405280939291908181526020018383808284378201915050505050509192919290505050611cef565b6040518086815260200185815260200184815260200183815260200180602001828103825283818151815260200191508051906020019080838360005b838110156104db5780820151818401526020810190506104c0565b50505050905090810190601f1680156105085780820380516001836020036101000a031916815260200191505b50965050505050505060405180910390f35b610574600480360381019080803590602001908201803590602001908080601f0160208091040260200160405190810160405280939291908181526020018383808284378201915050505050509192919290505050611e89565b005b6105dc600480360381019080803515159060200190929190803590602001908201803590602001908080601f01602080910402602001604051908101604052809392919081815260200183838082843782019150505050505091929192905050506122fc565b005b3480156105ea57600080fd5b506105f361252c565b604051808060200180602001806020018981526020018881526020018781526020018681526020018515151515815260200184810384528c818151815260200191508051906020019080838360005b8381101561065d578082015181840152602081019050610642565b50505050905090810190601f16801561068a5780820380516001836020036101000a031916815260200191505b5084810383528b818151815260200191508051906020019080838360005b838110156106c35780820151818401526020810190506106a8565b50505050905090810190601f1680156106f05780820380516001836020036101000a031916815260200191505b5084810382528a818151815260200191508051906020019080838360005b8381101561072957808201518184015260208101905061070e565b50505050905090810190601f1680156107565780820380516001836020036101000a031916815260200191505b509b50505050505050505050505060405180910390f35b6107c7600480360381019080803590602001908201803590602001908080601f01602080910402602001604051908101604052809392919081815260200183838082843782019150505050505091929192905050506127b8565b005b61082f600480360381019080803590602001908201803590602001908080601f0160208091040260200160405190810160405280939291908181526020018383808284378201915050505050509192919290803515159060200190929190505050612a7e565b005b34801561083d57600080fd5b50610898600480360381019080803590602001908201803590602001908080601f0160208091040260200160405190810160405280939291908181526020018383808284378201915050505050509192919290505050612d52565b60405180806020018060200180602001848103845287818151815260200191508051906020019080838360005b838110156108e05780820151818401526020810190506108c5565b50505050905090810190601f16801561090d5780820380516001836020036101000a031916815260200191505b50848103835286818151815260200191508051906020019080838360005b8381101561094657808201518184015260208101905061092b565b50505050905090810190601f1680156109735780820380516001836020036101000a031916815260200191505b50848103825285818151815260200191508051906020019080838360005b838110156109ac578082015181840152602081019050610991565b50505050905090810190601f1680156109d95780820380516001836020036101000a031916815260200191505b50965050505050505060405180910390f35b3480156109f757600080fd5b50610a52600480360381019080803590602001908201803590602001908080601f016020809104026020016040519081016040528093929190818152602001838380828437820191505050505050919291929050505061300f565b60405180861515151581526020018581526020018060200180602001846003811115610a7a57fe5b60ff168152602001838103835286818151815260200191508051906020019080838360005b83811015610aba578082015181840152602081019050610a9f565b50505050905090810190601f168015610ae75780820380516001836020036101000a031916815260200191505b50838103825285818151815260200191508051906020019080838360005b83811015610b20578082015181840152602081019050610b05565b50505050905090810190601f168015610b4d5780820380516001836020036101000a031916815260200191505b5097505050505050505060405180910390f35b348015610b6c57600080fd5b50610b7561325d565b604051808273ffffffffffffffffffffffffffffffffffffffff1673ffffffffffffffffffffffffffffffffffffffff16815260200191505060405180910390f35b610c6160048036038101908080359060200190929190803590602001908201803590602001908080601f0160208091040260200160405190810160405280939291908181526020018383808284378201915050505050509192919290803590602001908201803590602001908080601f01602080910402602001604051908101604052809392919081815260200183838082843782019150505050505091929192905050506132e1565b005b348015610c6f57600080fd5b50610c78613663565b604051808215151515815260200191505060405180910390f35b348015610c9e57600080fd5b50610cf9600480360381019080803590602001908201803590602001908080601f0160208091040260200160405190810160405280939291908181526020018383808284378201915050505050509192919290505050613676565b60405180806020018060200180602001848103845287818151815260200191508051906020019080838360005b83811015610d41578082015181840152602081019050610d26565b50505050905090810190601f168015610d6e5780820380516001836020036101000a031916815260200191505b50848103835286818151815260200191508051906020019080838360005b83811015610da7578082015181840152602081019050610d8c565b50505050905090810190601f168015610dd45780820380516001836020036101000a031916815260200191505b50848103825285818151815260200191508051906020019080838360005b83811015610e0d578082015181840152602081019050610df2565b50505050905090810190601f168015610e3a5780820380516001836020036101000a031916815260200191505b50965050505050505060405180910390f35b348015610e5857600080fd5b50610eb3600480360381019080803590602001908201803590602001908080601f0160208091040260200160405190810160405280939291908181526020018383808284378201915050505050509192919290505050613933565b60405180826007811115610ec357fe5b60ff16815260200191505060405180910390f35b610f31600480360381019080803590602001908201803590602001908080601f0160208091040260200160405190810160405280939291908181526020018383808284378201915050505050509192919290505050613a18565b005b348015610f3f57600080fd5b50610f48613c2b565b604051808060200180602001838103835285818151815260200191508051906020019080838360005b83811015610f8c578082015181840152602081019050610f71565b50505050905090810190601f168015610fb95780820380516001836020036101000a031916815260200191505b50838103825284818151815260200191508051906020019080838360005b83811015610ff2578082015181840152602081019050610fd7565b50505050905090810190601f16801561101f5780820380516001836020036101000a031916815260200191505b5094505050505060405180910390f35b6000809054906101000a900473ffffffffffffffffffffffffffffffffffffffff1673ffffffffffffffffffffffffffffffffffffffff163373ffffffffffffffffffffffffffffffffffffffff1614151561108a57600080fd5b81600115156008826040518082805190602001908083835b6020831015156110c757805182526020820191506020810190506020830392506110a2565b6001836020036101000a038019825116818451168082178552505050505050905001915050908152602001604051809103902060000160009054906101000a900460ff16151514151561111957600080fd5b60038381600381111561112857fe5b6008826040518082805190602001908083835b602083101515611160578051825260208201915060208101905060208303925061113b565b6001836020036101000a038019825116818451168082178552505050505050905001915050908152602001604051809103902060040160009054906101000a900460ff1660038111156111af57fe5b1415156111bb57600080fd5b6005858160078111156111ca57fe5b6009826040518082805190602001908083835b60208310151561120257805182526020820191506020810190506020830392506111dd565b6001836020036101000a0380198251168184511680821785525050505050509050019150509081526020016040518091039020600b0160009054906101000a900460ff16600781111561125157fe5b14151561125d57600080fd5b856009886040518082805190602001908083835b6020831015156112965780518252602082019150602081019050602083039250611271565b6001836020036101000a0380198251168184511680821785525050505050509050019150509081526020016040518091039020600a0190805190602001906112df929190613dd2565b5060066009886040518082805190602001908083835b60208310151561131a57805182526020820191506020810190506020830392506112f5565b6001836020036101000a0380198251168184511680821785525050505050509050019150509081526020016040518091039020600b0160006101000a81548160ff0219169083600781111561136b57fe5b021790555050505050505050565b6000809054906101000a900473ffffffffffffffffffffffffffffffffffffffff1673ffffffffffffffffffffffffffffffffffffffff163373ffffffffffffffffffffffffffffffffffffffff161415156113d457600080fd5b600060149054906101000a900460ff161515156113f057600080fd5b81600115156008826040518082805190602001908083835b60208310151561142d5780518252602082019150602081019050602083039250611408565b6001836020036101000a038019825116818451168082178552505050505050905001915050908152602001604051809103902060000160009054906101000a900460ff16151514151561147f57600080fd5b60038381600381111561148e57fe5b6008826040518082805190602001908083835b6020831015156114c657805182526020820191506020810190506020830392506114a1565b6001836020036101000a038019825116818451168082178552505050505050905001915050908152602001604051809103902060040160009054906101000a900460ff16600381111561151557fe5b14151561152157600080fd5b60038581600781111561153057fe5b6009826040518082805190602001908083835b6020831015156115685780518252602082019150602081019050602083039250611543565b6001836020036101000a0380198251168184511680821785525050505050509050019150509081526020016040518091039020600b0160009054906101000a900460ff1660078111156115b757fe5b1415156115c357600080fd5b856009886040518082805190602001908083835b6020831015156115fc57805182526020820191506020810190506020830392506115d7565b6001836020036101000a03801982511681845116808217855250505050505090500191505090815260200160405180910390206009019080519060200190611645929190613dd2565b5060056009886040518082805190602001908083835b602083101515611680578051825260208201915060208101905060208303925061165b565b6001836020036101000a0380198251168184511680821785525050505050509050019150509081526020016040518091039020600b0160006101000a81548160ff021916908360078111156116d157fe5b02179055506001600060146101000a81548160ff02191690831515021790555050505050505050565b60008060009054906101000a900473ffffffffffffffffffffffffffffffffffffffff1673ffffffffffffffffffffffffffffffffffffffff163373ffffffffffffffffffffffffffffffffffffffff1614151561175757600080fd5b89600115156008826040518082805190602001908083835b602083101515611794578051825260208201915060208101905060208303925061176f565b6001836020036101000a038019825116818451168082178552505050505050905001915050908152602001604051809103902060000160009054906101000a900460ff1615151415156117e657600080fd5b60038b8160038111156117f557fe5b6008826040518082805190602001908083835b60208310151561182d5780518252602082019150602081019050602083039250611808565b6001836020036101000a038019825116818451168082178552505050505050905001915050908152602001604051809103902060040160009054906101000a900460ff16600381111561187c57fe5b14151561188857600080fd5b8c6000600781111561189657fe5b6009826040518082805190602001908083835b6020831015156118ce57805182526020820191506020810190506020830392506118a9565b6001836020036101000a0380198251168184511680821785525050505050509050019150509081526020016040518091039020600b0160009054906101000a900460ff16600781111561191d57fe5b14806119ba57506002600781111561193157fe5b6009826040518082805190602001908083835b6020831015156119695780518252602082019150602081019050602083039250611944565b6001836020036101000a0380198251168184511680821785525050505050509050019150509081526020016040518091039020600b0160009054906101000a900460ff1660078111156119b857fe5b145b80611a565750600460078111156119cd57fe5b6009826040518082805190602001908083835b602083101515611a0557805182526020820191506020810190506020830392506119e0565b6001836020036101000a0380198251168184511680821785525050505050509050019150509081526020016040518091039020600b0160009054906101000a900460ff166007811115611a5457fe5b145b1515611a6157600080fd5b60088e6040518082805190602001908083835b602083101515611a995780518252602082019150602081019050602083039250611a74565b6001836020036101000a0380198251168184511680821785525050505050509050019150509081526020016040518091039020600101549450610180604051908101604052808e81526020018d81526020018c81526020018681526020018b81526020018a8152602001898152602001888152602001878152602001602060405190810160405280600081525081526020016020604051908101604052806000815250815260200160016007811115611b4e57fe5b81525060098f6040518082805190602001908083835b602083101515611b895780518252602082019150602081019050602083039250611b64565b6001836020036101000a03801982511681845116808217855250505050505090500191505090815260200160405180910390206000820151816000019080519060200190611bd8929190613e52565b506020820151816001019080519060200190611bf5929190613e52565b506040820151816002019080519060200190611c12929190613e52565b50606082015181600301556080820151816004015560a0820151816005015560c0820151816006015560e0820151816007019080519060200190611c57929190613e52565b50610100820151816008019080519060200190611c75929190613e52565b50610120820151816009019080519060200190611c93929190613e52565b5061014082015181600a019080519060200190611cb1929190613e52565b5061016082015181600b0160006101000a81548160ff02191690836007811115611cd757fe5b02179055509050505050505050505050505050505050565b600080600080606060008060009054906101000a900473ffffffffffffffffffffffffffffffffffffffff1673ffffffffffffffffffffffffffffffffffffffff163373ffffffffffffffffffffffffffffffffffffffff16141515611d5457600080fd5b6009876040518082805190602001908083835b602083101515611d8c5780518252602082019150602081019050602083039250611d67565b6001836020036101000a03801982511681845116808217855250505050505090500191505090815260200160405180910390209050806003015481600401548260050154836006015484600701808054600181600116156101000203166002900480601f016020809104026020016040519081016040528092919081815260200182805460018160011615610100020316600290048015611e6e5780601f10611e4357610100808354040283529160200191611e6e565b820191906000526020600020905b815481529060010190602001808311611e5157829003601f168201915b50505050509050955095509550955095505091939590929450565b6000809054906101000a900473ffffffffffffffffffffffffffffffffffffffff1673ffffffffffffffffffffffffffffffffffffffff163373ffffffffffffffffffffffffffffffffffffffff16141515611ee457600080fd5b80600115156008826040518082805190602001908083835b602083101515611f215780518252602082019150602081019050602083039250611efc565b6001836020036101000a038019825116818451168082178552505050505050905001915050908152602001604051809103902060000160009054906101000a900460ff161515141515611f7357600080fd5b816000806008836040518082805190602001908083835b602083101515611faf5780518252602082019150602081019050602083039250611f8a565b6001836020036101000a038019825116818451168082178552505050505050905001915050908152602001604051809103902060040160009054906101000a900460ff1691506000600381111561200257fe5b82600381111561200e57fe5b148061202f575060038081111561202157fe5b82600381111561202d57fe5b145b151561203a57600080fd5b6009836040518082805190602001908083835b602083101515612072578051825260208201915060208101905060208303925061204d565b6001836020036101000a0380198251168184511680821785525050505050509050019150509081526020016040518091039020600b0160009054906101000a900460ff169050600460078111156120c557fe5b8160078111156120d157fe5b14806120f35750600660078111156120e557fe5b8160078111156120f157fe5b145b80612113575060078081111561210557fe5b81600781111561211157fe5b145b15151561211f57600080fd5b60026008866040518082805190602001908083835b6020831015156121595780518252602082019150602081019050602083039250612134565b6001836020036101000a038019825116818451168082178552505050505050905001915050908152602001604051809103902060040160006101000a81548160ff021916908360038111156121aa57fe5b0217905550600060078111156121bc57fe5b6009866040518082805190602001908083835b6020831015156121f457805182526020820191506020810190506020830392506121cf565b6001836020036101000a0380198251168184511680821785525050505050509050019150509081526020016040518091039020600b0160009054906101000a900460ff16600781111561224357fe5b1415156122db5760046009866040518082805190602001908083835b602083101515612284578051825260208201915060208101905060208303925061225f565b6001836020036101000a0380198251168184511680821785525050505050509050019150509081526020016040518091039020600b0160006101000a81548160ff021916908360078111156122d557fe5b02179055505b60008060146101000a81548160ff0219169083151502179055505050505050565b6000809054906101000a900473ffffffffffffffffffffffffffffffffffffffff1673ffffffffffffffffffffffffffffffffffffffff163373ffffffffffffffffffffffffffffffffffffffff1614151561235757600080fd5b80600115156008826040518082805190602001908083835b602083101515612394578051825260208201915060208101905060208303925061236f565b6001836020036101000a038019825116818451168082178552505050505050905001915050908152602001604051809103902060000160009054906101000a900460ff1615151415156123e657600080fd5b6000828160038111156123f557fe5b6008826040518082805190602001908083835b60208310151561242d5780518252602082019150602081019050602083039250612408565b6001836020036101000a038019825116818451168082178552505050505050905001915050908152602001604051809103902060040160009054906101000a900460ff16600381111561247c57fe5b14151561248857600080fd5b84612494576001612497565b60035b6008856040518082805190602001908083835b6020831015156124cf57805182526020820191506020810190506020830392506124aa565b6001836020036101000a038019825116818451168082178552505050505050905001915050908152602001604051809103902060040160006101000a81548160ff0219169083600381111561252057fe5b02179055505050505050565b606080606060008060008060008060009054906101000a900473ffffffffffffffffffffffffffffffffffffffff1673ffffffffffffffffffffffffffffffffffffffff163373ffffffffffffffffffffffffffffffffffffffff1614151561259457600080fd5b6001600001600180016001600201600160030154600160040154600160050154600160060154600060149054906101000a900460ff16878054600181600116156101000203166002900480601f01602080910402602001604051908101604052809291908181526020018280546001816001161561010002031660029004801561265f5780601f106126345761010080835404028352916020019161265f565b820191906000526020600020905b81548152906001019060200180831161264257829003601f168201915b50505050509750868054600181600116156101000203166002900480601f0160208091040260200160405190810160405280929190818152602001828054600181600116156101000203166002900480156126fb5780601f106126d0576101008083540402835291602001916126fb565b820191906000526020600020905b8154815290600101906020018083116126de57829003601f168201915b50505050509650858054600181600116156101000203166002900480601f0160208091040260200160405190810160405280929190818152602001828054600181600116156101000203166002900480156127975780601f1061276c57610100808354040283529160200191612797565b820191906000526020600020905b81548152906001019060200180831161277a57829003601f168201915b50505050509550975097509750975097509750975097509091929394959697565b6000809054906101000a900473ffffffffffffffffffffffffffffffffffffffff1673ffffffffffffffffffffffffffffffffffffffff163373ffffffffffffffffffffffffffffffffffffffff1614151561281357600080fd5b80600115156008826040518082805190602001908083835b602083101515612850578051825260208201915060208101905060208303925061282b565b6001836020036101000a038019825116818451168082178552505050505050905001915050908152602001604051809103902060000160009054906101000a900460ff1615151415156128a257600080fd5b6003828160038111156128b157fe5b6008826040518082805190602001908083835b6020831015156128e957805182526020820191506020810190506020830392506128c4565b6001836020036101000a038019825116818451168082178552505050505050905001915050908152602001604051809103902060040160009054906101000a900460ff16600381111561293857fe5b14151561294457600080fd5b60068481600781111561295357fe5b6009826040518082805190602001908083835b60208310151561298b5780518252602082019150602081019050602083039250612966565b6001836020036101000a0380198251168184511680821785525050505050509050019150509081526020016040518091039020600b0160009054906101000a900460ff1660078111156129da57fe5b1415156129e657600080fd5b60076009876040518082805190602001908083835b602083101515612a2057805182526020820191506020810190506020830392506129fb565b6001836020036101000a0380198251168184511680821785525050505050509050019150509081526020016040518091039020600b0160006101000a81548160ff02191690836007811115612a7157fe5b0217905550505050505050565b6000809054906101000a900473ffffffffffffffffffffffffffffffffffffffff1673ffffffffffffffffffffffffffffffffffffffff163373ffffffffffffffffffffffffffffffffffffffff16141515612ad957600080fd5b81600115156008826040518082805190602001908083835b602083101515612b165780518252602082019150602081019050602083039250612af1565b6001836020036101000a038019825116818451168082178552505050505050905001915050908152602001604051809103902060000160009054906101000a900460ff161515141515612b6857600080fd5b600383816003811115612b7757fe5b6008826040518082805190602001908083835b602083101515612baf5780518252602082019150602081019050602083039250612b8a565b6001836020036101000a038019825116818451168082178552505050505050905001915050908152602001604051809103902060040160009054906101000a900460ff166003811115612bfe57fe5b141515612c0a57600080fd5b600185816007811115612c1957fe5b6009826040518082805190602001908083835b602083101515612c515780518252602082019150602081019050602083039250612c2c565b6001836020036101000a0380198251168184511680821785525050505050509050019150509081526020016040518091039020600b0160009054906101000a900460ff166007811115612ca057fe5b141515612cac57600080fd5b85612cb8576002612cbb565b60035b6009886040518082805190602001908083835b602083101515612cf35780518252602082019150602081019050602083039250612cce565b6001836020036101000a0380198251168184511680821785525050505050509050019150509081526020016040518091039020600b0160006101000a81548160ff02191690836007811115612d4457fe5b021790555050505050505050565b606080606060008060009054906101000a900473ffffffffffffffffffffffffffffffffffffffff1673ffffffffffffffffffffffffffffffffffffffff163373ffffffffffffffffffffffffffffffffffffffff16141515612db457600080fd5b6009856040518082805190602001908083835b602083101515612dec5780518252602082019150602081019050602083039250612dc7565b6001836020036101000a03801982511681845116808217855250505050505090500191505090815260200160405180910390209050806000018160010182600201828054600181600116156101000203166002900480601f016020809104026020016040519081016040528092919081815260200182805460018160011615610100020316600290048015612ec25780601f10612e9757610100808354040283529160200191612ec2565b820191906000526020600020905b815481529060010190602001808311612ea557829003601f168201915b50505050509250818054600181600116156101000203166002900480601f016020809104026020016040519081016040528092919081815260200182805460018160011615610100020316600290048015612f5e5780601f10612f3357610100808354040283529160200191612f5e565b820191906000526020600020905b815481529060010190602001808311612f4157829003601f168201915b50505050509150808054600181600116156101000203166002900480601f016020809104026020016040519081016040528092919081815260200182805460018160011615610100020316600290048015612ffa5780601f10612fcf57610100808354040283529160200191612ffa565b820191906000526020600020905b815481529060010190602001808311612fdd57829003601f168201915b50505050509050935093509350509193909250565b6000806060806000806000809054906101000a900473ffffffffffffffffffffffffffffffffffffffff1673ffffffffffffffffffffffffffffffffffffffff163373ffffffffffffffffffffffffffffffffffffffff1614151561307357600080fd5b6008876040518082805190602001908083835b6020831015156130ab5780518252602082019150602081019050602083039250613086565b6001836020036101000a038019825116818451168082178552505050505050905001915050908152602001604051809103902090508060000160009054906101000a900460ff16816001015482600201836003018460040160009054906101000a900460ff16828054600181600116156101000203166002900480601f0160208091040260200160405190810160405280929190818152602001828054600181600116156101000203166002900480156131a65780601f1061317b576101008083540402835291602001916131a6565b820191906000526020600020905b81548152906001019060200180831161318957829003601f168201915b50505050509250818054600181600116156101000203166002900480601f0160208091040260200160405190810160405280929190818152602001828054600181600116156101000203166002900480156132425780601f1061321757610100808354040283529160200191613242565b820191906000526020600020905b81548152906001019060200180831161322557829003601f168201915b50505050509150955095509550955095505091939590929450565b60008060009054906101000a900473ffffffffffffffffffffffffffffffffffffffff1673ffffffffffffffffffffffffffffffffffffffff163373ffffffffffffffffffffffffffffffffffffffff161415156132ba57600080fd5b6000809054906101000a900473ffffffffffffffffffffffffffffffffffffffff16905090565b6132e9613ed2565b6000809054906101000a900473ffffffffffffffffffffffffffffffffffffffff1673ffffffffffffffffffffffffffffffffffffffff163373ffffffffffffffffffffffffffffffffffffffff1614151561334457600080fd5b81600015156008826040518082805190602001908083835b602083101515613381578051825260208201915060208101905060208303925061335c565b6001836020036101000a038019825116818451168082178552505050505050905001915050908152602001604051809103902060000160009054906101000a900460ff16151514806134645750600160038111156133db57fe5b6008826040518082805190602001908083835b60208310151561341357805182526020820191506020810190506020830392506133ee565b6001836020036101000a038019825116818451168082178552505050505050905001915050908152602001604051809103902060040160009054906101000a900460ff16600381111561346257fe5b145b8061350057506002600381111561347757fe5b6008826040518082805190602001908083835b6020831015156134af578051825260208201915060208101905060208303925061348a565b6001836020036101000a038019825116818451168082178552505050505050905001915050908152602001604051809103902060040160009054906101000a900460ff1660038111156134fe57fe5b145b151561350b57600080fd5b600060149054906101000a900460ff1615151561352757600080fd5b60a0604051908101604052806001151581526020018681526020018581526020018481526020016000600381111561355b57fe5b8152509150816008846040518082805190602001908083835b6020831015156135995780518252602082019150602081019050602083039250613574565b6001836020036101000a038019825116818451168082178552505050505050905001915050908152602001604051809103902060008201518160000160006101000a81548160ff021916908315150217905550602082015181600101556040820151816002019080519060200190613612929190613e52565b50606082015181600301908051906020019061362f929190613e52565b5060808201518160040160006101000a81548160ff0219169083600381111561365457fe5b02179055509050505050505050565b600060149054906101000a900460ff1681565b606080606060008060009054906101000a900473ffffffffffffffffffffffffffffffffffffffff1673ffffffffffffffffffffffffffffffffffffffff163373ffffffffffffffffffffffffffffffffffffffff161415156136d857600080fd5b6009856040518082805190602001908083835b60208310151561371057805182526020820191506020810190506020830392506136eb565b6001836020036101000a03801982511681845116808217855250505050505090500191505090815260200160405180910390209050806008018160090182600a01828054600181600116156101000203166002900480601f0160208091040260200160405190810160405280929190818152602001828054600181600116156101000203166002900480156137e65780601f106137bb576101008083540402835291602001916137e6565b820191906000526020600020905b8154815290600101906020018083116137c957829003601f168201915b50505050509250818054600181600116156101000203166002900480601f0160208091040260200160405190810160405280929190818152602001828054600181600116156101000203166002900480156138825780601f1061385757610100808354040283529160200191613882565b820191906000526020600020905b81548152906001019060200180831161386557829003601f168201915b50505050509150808054600181600116156101000203166002900480601f01602080910402602001604051908101604052809291908181526020018280546001816001161561010002031660029004801561391e5780601f106138f35761010080835404028352916020019161391e565b820191906000526020600020905b81548152906001019060200180831161390157829003601f168201915b50505050509050935093509350509193909250565b6000806000809054906101000a900473ffffffffffffffffffffffffffffffffffffffff1673ffffffffffffffffffffffffffffffffffffffff163373ffffffffffffffffffffffffffffffffffffffff1614151561399157600080fd5b6009836040518082805190602001908083835b6020831015156139c957805182526020820191506020810190506020830392506139a4565b6001836020036101000a0380198251168184511680821785525050505050509050019150509081526020016040518091039020905080600b0160009054906101000a900460ff16915050919050565b6000809054906101000a900473ffffffffffffffffffffffffffffffffffffffff1673ffffffffffffffffffffffffffffffffffffffff163373ffffffffffffffffffffffffffffffffffffffff16141515613a7357600080fd5b8060006009826040518082805190602001908083835b602083101515613aae5780518252602082019150602081019050602083039250613a89565b6001836020036101000a0380198251168184511680821785525050505050509050019150509081526020016040518091039020600b0160009054906101000a900460ff16905060046007811115613b0157fe5b816007811115613b0d57fe5b1480613b2f575060066007811115613b2157fe5b816007811115613b2d57fe5b145b80613b4f5750600780811115613b4157fe5b816007811115613b4d57fe5b145b80613b70575060026007811115613b6257fe5b816007811115613b6e57fe5b145b151515613b7c57600080fd5b60046009846040518082805190602001908083835b602083101515613bb65780518252602082019150602081019050602083039250613b91565b6001836020036101000a0380198251168184511680821785525050505050509050019150509081526020016040518091039020600b0160006101000a81548160ff02191690836007811115613c0757fe5b021790555060008060146101000a81548160ff021916908315150217905550505050565b6060806000809054906101000a900473ffffffffffffffffffffffffffffffffffffffff1673ffffffffffffffffffffffffffffffffffffffff163373ffffffffffffffffffffffffffffffffffffffff16141515613c8957600080fd5b600160000160018001818054600181600116156101000203166002900480601f016020809104026020016040519081016040528092919081815260200182805460018160011615610100020316600290048015613d275780601f10613cfc57610100808354040283529160200191613d27565b820191906000526020600020905b815481529060010190602001808311613d0a57829003601f168201915b50505050509150808054600181600116156101000203166002900480601f016020809104026020016040519081016040528092919081815260200182805460018160011615610100020316600290048015613dc35780601f10613d9857610100808354040283529160200191613dc3565b820191906000526020600020905b815481529060010190602001808311613da657829003601f168201915b50505050509050915091509091565b828054600181600116156101000203166002900490600052602060002090601f016020900481019282601f10613e1357805160ff1916838001178555613e41565b82800160010185558215613e41579182015b82811115613e40578251825591602001919060010190613e25565b5b509050613e4e9190613f0f565b5090565b828054600181600116156101000203166002900490600052602060002090601f016020900481019282601f10613e9357805160ff1916838001178555613ec1565b82800160010185558215613ec1579182015b82811115613ec0578251825591602001919060010190613ea5565b5b509050613ece9190613f0f565b5090565b60a06040519081016040528060001515815260200160008152602001606081526020016060815260200160006003811115613f0957fe5b81525090565b613f3191905b80821115613f2d576000816000905550600101613f15565b5090565b905600a165627a7a723058208ffe27bf2d5b3178d059a3ed5c07dba142bf3a998d22ebbe6546c61bd61555880029",
  "source": "pragma solidity ^0.4.18;\ncontract Enlistment {\n\n    address owner;\n    bool public locked = false;\n    EnlistmentStruct enlistment;\n    mapping(string => Offer) tenantOfferMap;\n    mapping(string => AgreementDraft) tenantAgreementMap;\n\n    function Enlistment(string landlordEmail, string landlordName, string streetName, uint floorNr, uint apartmentNr, uint houseNr, uint postalCode) public\n    {\n        enlistment = EnlistmentStruct(landlordEmail, landlordName, streetName, floorNr, apartmentNr, houseNr, postalCode);\n        owner = msg.sender;\n    }\n\n    function getOwner() view public ownerOnly() returns (address) {\n        return owner;\n    }\n\n    function getLandlord() view public ownerOnly() returns (string, string) {\n        return (enlistment.landlordEmail, enlistment.landlordName);\n    }\n\n    function getEnlistment() view public ownerOnly() returns (string, string, string, uint, uint, uint, uint, bool) {\n        return (enlistment.landlordEmail, enlistment.landlordName, enlistment.streetName,\n            enlistment.floorNr, enlistment.apartmentNr, enlistment.houseNr, enlistment.postalCode, locked);\n    }\n\n    enum OfferStatus {\n        PENDING,\n        REJECTED,\n        CANCELLED,\n        ACCEPTED\n    }\n\n    enum AgreementStatus {\n        UNINITIALIZED, // internal\n        PENDING,\n        REJECTED,\n        CONFIRMED,\n        CANCELLED,\n        LANDLORD_SIGNED,\n        TENANT_SIGNED,\n        STARTED\n    }\n\n    struct EnlistmentStruct {\n        string landlordEmail;\n        string landlordName;\n        string streetName;\n        uint floorNr;\n        uint apartmentNr;\n        uint houseNr;\n        uint postalCode;\n    }\n\n    struct Offer {\n        bool initialized;\n        uint amount;\n        string tenantName;\n        string tenantEmail;\n        OfferStatus status;\n    }\n\n    struct AgreementDraft {\n        string landlordName; // for simplicity, there is only one landlord\n        string tenantName; // for simplicity, there is only one tenant and occupants are omitted\n        string tenantEmail;\n        uint amount;\n        uint leaseStart;\n        uint handoverDate;\n        uint leasePeriod;\n        string otherTerms;\n        string documentHash;\n        string landlordSignature;\n        string tenantSignature;\n        AgreementStatus status;\n    }\n\n    modifier noActiveOffer(string tenantEmail) {\n        require(tenantOfferMap[tenantEmail].initialized == false || tenantOfferMap[tenantEmail].status == OfferStatus.REJECTED || tenantOfferMap[tenantEmail].status == OfferStatus.CANCELLED);\n        _;\n    }\n\n    modifier offerExists(string tenantEmail) {\n        require(tenantOfferMap[tenantEmail].initialized == true);\n        _;\n    }\n\n    modifier offerInStatus(OfferStatus status, string tenantEmail) {\n        require(tenantOfferMap[tenantEmail].status == status);\n        _;\n    }\n\n    modifier offerCancellable(string tenantEmail) {\n        var offerStatus = tenantOfferMap[tenantEmail].status;\n        require(offerStatus == OfferStatus.PENDING || offerStatus == OfferStatus.ACCEPTED);\n        var agreementStatus = tenantAgreementMap[tenantEmail].status;\n        require(!(agreementStatus == AgreementStatus.CANCELLED || agreementStatus == AgreementStatus.TENANT_SIGNED || agreementStatus == AgreementStatus.STARTED));\n        _;\n    }\n\n    modifier agreementCanBeSubmitted(string tenantEmail) {\n        require(tenantAgreementMap[tenantEmail].status == AgreementStatus.UNINITIALIZED ||\n        tenantAgreementMap[tenantEmail].status == AgreementStatus.REJECTED || tenantAgreementMap[tenantEmail].status == AgreementStatus.CANCELLED);\n        _;\n    }\n\n    modifier agreementInStatus(AgreementStatus status, string tenantEmail) {\n        require(tenantAgreementMap[tenantEmail].status == status);\n        _;\n    }\n\n    modifier agreementCancellable(string tenantEmail) {\n        var agreementStatus = tenantAgreementMap[tenantEmail].status;\n        require(!(agreementStatus == AgreementStatus.CANCELLED || agreementStatus == AgreementStatus.TENANT_SIGNED || agreementStatus == AgreementStatus.STARTED || agreementStatus == AgreementStatus.REJECTED));\n        _;\n    }\n\n    modifier notLocked() {\n        require(!locked);\n        _;\n    }\n\n    modifier ownerOnly() {\n        require(msg.sender == owner);\n        _;\n    }\n\n    // what if the offer is in status PENDING and the tenant wants to send a new one?\n    function sendOffer(uint amount, string tenantName, string tenantEmail) payable public\n        ownerOnly()\n        noActiveOffer(tenantEmail)\n        notLocked()\n    {\n        var offer = Offer({\n            initialized: true,\n            amount: amount,\n            tenantName: tenantName,\n            tenantEmail: tenantEmail,\n            status: OfferStatus.PENDING\n        });\n        tenantOfferMap[tenantEmail] = offer;\n    }\n\n    function cancelOffer(string tenantEmail) payable public\n        ownerOnly()\n        offerExists(tenantEmail)\n        offerCancellable(tenantEmail)\n    {\n        tenantOfferMap[tenantEmail].status = OfferStatus.CANCELLED;\n        if (tenantAgreementMap[tenantEmail].status != AgreementStatus.UNINITIALIZED) {\n            tenantAgreementMap[tenantEmail].status = AgreementStatus.CANCELLED;\n        }\n        locked = false;\n    }\n\n    function getOffer(string tenantEmail) view public ownerOnly() returns (bool, uint, string, string, OfferStatus) {\n        var o = tenantOfferMap[tenantEmail];\n        return (o.initialized, o.amount, o.tenantName, o.tenantEmail, o.status);\n    }\n\n    function reviewOffer(bool result, string tenantEmail) payable public\n        ownerOnly()\n        offerExists(tenantEmail)\n        offerInStatus(OfferStatus.PENDING, tenantEmail)\n    {\n        tenantOfferMap[tenantEmail].status = result ? OfferStatus.ACCEPTED : OfferStatus.REJECTED;\n    }\n\n    function submitDraft(string tenantEmail, string landlordName, string agreementTenantName, string agreementTenantEmail,\n        uint leaseStart, uint handoverDate, uint leasePeriod, string otherTerms, string documentHash) payable public\n        ownerOnly()\n        offerExists(tenantEmail)\n        offerInStatus(OfferStatus.ACCEPTED, tenantEmail)\n        agreementCanBeSubmitted(tenantEmail)\n    {\n        var amount = tenantOfferMap[tenantEmail].amount;\n        tenantAgreementMap[tenantEmail] = AgreementDraft(landlordName,\n            agreementTenantName, agreementTenantEmail,\n            amount, leaseStart,\n            handoverDate, leasePeriod,\n            otherTerms, documentHash, \"\", \"\", AgreementStatus.PENDING);\n    }\n\n    // getAgreement functions:\n    // can only return tuple of max 7 elements, otherwise throws \"Stack too geep\"\n    // solution: splitted into multiple functions\n\n    function getAgreementParticipants(string tenantEmail) view public ownerOnly() returns (string, string, string) {\n        var a = tenantAgreementMap[tenantEmail];\n        return (a.landlordName, a.tenantName, a.tenantEmail);\n    }\n\n    function getAgreementDetails(string tenantEmail) view public ownerOnly() returns (uint, uint, uint, uint, string) {\n        var a = tenantAgreementMap[tenantEmail];\n        return (a.amount, a.leaseStart, a.handoverDate, a.leasePeriod, a.otherTerms);\n    }\n\n    function getAgreementHashes(string tenantEmail) view public ownerOnly() returns (string, string, string) {\n        var a = tenantAgreementMap[tenantEmail];\n        return (a.documentHash, a.landlordSignature, a.tenantSignature);\n    }\n\n    function getAgreementStatus(string tenantEmail) view public ownerOnly() returns (AgreementStatus) {\n        var a = tenantAgreementMap[tenantEmail];\n        return (a.status);\n    }\n\n    function reviewAgreement(string tenantEmail, bool result) payable public\n        ownerOnly()\n        offerExists(tenantEmail)\n        offerInStatus(OfferStatus.ACCEPTED, tenantEmail)\n        agreementInStatus(AgreementStatus.PENDING, tenantEmail)\n    {\n        tenantAgreementMap[tenantEmail].status = result ? AgreementStatus.CONFIRMED : AgreementStatus.REJECTED;\n    }\n\n    function landlordSignAgreement(string tenantEmail, string landlordSignature) payable public\n        ownerOnly()\n        notLocked()\n        offerExists(tenantEmail)\n        offerInStatus(OfferStatus.ACCEPTED, tenantEmail)\n        agreementInStatus(AgreementStatus.CONFIRMED, tenantEmail)\n    {\n        tenantAgreementMap[tenantEmail].landlordSignature = landlordSignature;\n        tenantAgreementMap[tenantEmail].status = AgreementStatus.LANDLORD_SIGNED;\n        locked = true;\n    }\n\n    function tenantSignAgreement(string tenantEmail, string tenantSignature) payable public\n        ownerOnly()\n        offerExists(tenantEmail)\n        offerInStatus(OfferStatus.ACCEPTED, tenantEmail)\n        agreementInStatus(AgreementStatus.LANDLORD_SIGNED, tenantEmail)\n    {\n        tenantAgreementMap[tenantEmail].tenantSignature = tenantSignature;\n        tenantAgreementMap[tenantEmail].status = AgreementStatus.TENANT_SIGNED;\n    }\n\n    function cancelAgreement(string tenantEmail) payable public\n        ownerOnly()\n        agreementCancellable(tenantEmail)\n    {\n        tenantAgreementMap[tenantEmail].status = AgreementStatus.CANCELLED;\n        locked = false;\n    }\n\n    function receiveFirstMonthRent(string tenantEmail) payable public\n        ownerOnly()\n        offerExists(tenantEmail)\n        offerInStatus(OfferStatus.ACCEPTED, tenantEmail)\n        agreementInStatus(AgreementStatus.TENANT_SIGNED, tenantEmail)\n    {\n        tenantAgreementMap[tenantEmail].status = AgreementStatus.STARTED;\n    }\n}\n",
  "sourcePath": "/home/ravi/blockchain-real-estate/ethereum/contracts/Enlistment.sol",
  "compiler": {
    "name": "solc",
    "version": "0.4.24+commit.e67f0147.Emscripten.clang"
  },
  "schemaVersion": "2.0.1",
  "updatedAt": "2018-09-06T11:31:46.716Z"
}